:1000000018308A00002800000A108A100A1182079E
:1000100028340C340134063420102010A012730050
:100020000A18301830000C10201020102010A020CA
:10003000CC18301A20052010D33467376136A02140
:100040006F37F632723A65390A10201020102010EE
:10005000D334ED316F3773100A10A0216F37743924
:100060006F36A029F939F432ED390000CD34EE3A7B
:10007000F4327300D6376C3A7300F81830106D2BD9
:100080000000433461346C34693462347234613456
:100090007434653420344D34613469346E347334CF
:1000A00052340034433461346C3469346234723411
:1000B00061347434653420344D34613469346E34C1
:1000C000733459340034433461346C3469346234E9
:1000D000723461347434653420344D34613469349D
:1000E0006E34733442340034433461346C346934D4
:1000F00062347234613474346534203444344734A7
:1001000052342034203420340034433461346C348D
:100110006934623472346134743465342034423466
:1001200054345334423461347434003443346134CD
:100130006C3469346234723461347434653420341C
:10014000443447342034423461347434003443340A
:1001500061346C346934623420344B346E346F341F
:10016000623420344D34613469346E347334003475
:10017000433461346C346934623420344B346E342B
:100180006F346234203442345434533420342034B5
:100190000034433461346C346934623420344B3479
:1001A0006E346F3462342034443447344234613422
:1001B00074340034433461346C3469346234203430
:1001C0004B346E346F3462342034543465346D34BF
:1001D000703472340034433461346C3469346234C2
:1001E000203441346C346C342034503468346134FD
:1001F0007334653473340034433461346C3469349B
:100200006234203441346C346C3420344B346E34DA
:100210006F346234733420340034443465346334CE
:1002200061346C346934623420345034683461345D
:1002300073346534733420342034003444346534EA
:10024000633461346C346934623420344B346E343A
:100250006F34623473342034203420340034443416
:100260006534633461346C346934623442346134EB
:1002700074347434653472346934653473340034DE
:10028000CB18A01EA012B019EC3A20104B19A01EDA
:10029000A012321731332000CB19A01EA012321742
:1002A0003133A02534103D102519AE186610000119
:1002B0000C28CC32E1396510D232EC32E1396510CC
:1002C0000A10202AE8322021753AF437EE10000097
:1002D0002B3084008317000803197F290130F800B0
:1002E000BF30F7006400F70B7229F80B70294A3011
:1002F000F700F70B792900006400800B6E290800D5
:1003000003173218872903130511892903170313CB
:1003100005158316051183120317B21893290313C9
:1003200085119529031703138515831685118312EB
:10033000031732199F2903138512A12903170313E9
:1003400085168316851283120317B219AB2903137E
:100350000513AD29031703130517831605130000B2
:1003600085108312851464000000831685108312A3
:1003700085100800831605108312051064001330E1
:10038000F700F70BC12900000317AF080319CF29A5
:1003900083160313051083120514D429031783163B
:1003A00003130510831205100000831685108312B5
:1003B00085100317300EB1000F30B1053108B200BF
:1003C00003138021031730080F39B100B200031363
:1003D000802108000130D300831605108312051018
:1003E000831685108312851023300317AB00031387
:1003F00068218316E6016608023C031C0D2A0330BF
:1004000083120317B2000313802105300317AB00DA
:10041000031368218316E60AFB29023083120317AF
:10042000B200031380218316E6016608033C031C17
:10043000312A6608831204208316E700831203170B
:10044000AF0183160313670883120317B000031369
:10045000BA2105300317AB00031368218316E60A9F
:10046000152A83128A150A164A2803172C08013AFE
:1004700003130319452A033A0319482A013A0319B9
:100480004C2A073A0319502A552A0317AD01582A56
:1004900040300317AD00582A14300317AD00582A16
:1004A00054300317AD00582A03130317AD01582A1F
:1004B00001302B02AD072D088038AE00AF012E08A9
:1004C000B0000313BA21080003172A080C3A0313DB
:1004D0000319712A063A03197F2A023A03198A2A54
:1004E000912A0317AF010130B0000313BA21013084
:1004F000D30002300317AB0003136821992AD30AF3
:1005000001300317AB00031353080317AC000313A8
:100510003522992A0317AF011030B0000313BA2116
:10052000992A01300317AF002A08B0000313BA213B
:10053000992A08000B080317920003138B138316E4
:1005400003178C170C140000000083120C087F396D
:100550000319D72A93000D0894000F08950013087B
:10056000AA0003136422031714088D0015088F00D6
:1005700083168C170C140000000083120C0D0E0D56
:100580007F390319D72A93000D0894000F089500AE
:100590001308AA0003136422031714088D0015081A
:1005A0008F008D0A03198F0A03139F2A0317921FC6
:1005B000DC2A03138B1703170313080003179F018B
:1005C00005109F011F08C73C031CED2A0530AB0036
:1005D0000313682103179F0AE22A05140313080076
:1005E000133003178D0000308F0003139A22DE2290
:1005F000DE228A150A165D280830F80000008711EF
:1006000083168711000083120317A30D031307122B
:10061000031C0D2B8316071683120318122B831647
:1006200007128312831687158312871D152BF80B6B
:10063000FE2A0000871183168711000007160000AC
:10064000000087158312871D232BF8010000071A6D
:1006500078148711831687118312071283160712E5
:100660008312080083160716000087150000831206
:100670000712831607120000831287118316871151
:10068000A03083120317A3000313FC22780803177A
:1006900022107818221483160313071200008715FE
:1006A0008312871D512B0000552B0000831607165F
:1006B0000000003083120317221C0130F8000313DE
:1006C00008003223F8080319612B8316071600006F
:1006D0008715000083120712831607120000831289
:1006E000871183168711A03083120317A300031309
:1006F000FC228316680883120317A3000313FC224D
:10070000831607160000871500008312871D862BAD
:1007100007128316071200008312871183168711B0
:10072000A13083120317A3000313FC22F701083042
:100730008316EB007708EC0007160000871583127C
:10074000871DA02B071A0314071E0310F80D0000C5
:1007500083168711831287118316EB0B9C2B0716C8
:1007600000008312071283166C08031D0712000095
:1007700087158312871DBA2B0000871183168711F6
:10078000000083120712831607127808E900071287
:10079000000087158312871DCB2B0000CF2B000094
:1007A0008316071600006908F80083128A150A16D6
:1007B00083288E30F70083166808F8006708F90070
:1007C000FA01F808031DEE2B7908F800F90108304A
:1007D000F702F808031DEE2BF701F62B0310F81BA8
:1007E000F52BF90DF80DF703EE2BF8138312080023
:1007F00083166B080319E32C831203179800100863
:10080000031D052C83160313E32C9802031C102CE4
:100810007F309807031C0F2C83160313E32C1C2C2A
:10082000813098020318172C83160313E32C031D41
:100830001C2C83160313E32C1808F700F801F901A8
:10084000FA019701831603136C08831203179600AD
:100850009617831603136D088312031795008316EA
:1008600003136E08831203179400193098001308BD
:10087000940203184B2C0130950203184B2C96025E
:1008800003184B2C970203184B2C970A960A950ACB
:10089000130894077D2C120895020318662C01306A
:1008A00096020318662C97020318662C970A960A7C
:1008B0001208950713089407031C7D2C950A031D45
:1008C0007D2C960A031D7D2C970A7D2C11088038FB
:1008D000960203187C2C0130970203187C2C970A8F
:1008E00011088038960712089507031C5A2C960A9F
:1008F000031D5A2C970A5A2C7A14980B802C8B2C97
:100900000310940D950D960D970D0310FA0DF90D2A
:10091000F80D990D372C191C932C0310F80CF90CB9
:10092000FA0C990C982CF70B982C83160313E32CD4
:10093000991BC12C0310940D950D960D970D13085E
:1009400094020318AD2C013095020318AD2C9602C9
:100950000318AD2C9702031CD32C12089502031820
:10096000B82C013096020318B82C9702031CD32C24
:100970001108803896020318C12C01309702031C1D
:10098000D32CFA0A031DD32CF90A031DD32CF80A21
:10099000031DD32CF70A031DD02C83160313E32C5D
:1009A000F80CF90CFA0C831603136C088312031766
:1009B000980011089806981FDF2CF817E92CF813F7
:1009C000E92C83160313F701F801F901FA018312E8
:1009D0000317031308008316E601E801EA01220861
:1009E000FA00003021078312A800831668088312DA
:1009F000A9007A0803187A0FA9078316E801EA010B
:100A00002408E900FA0000302307F80068080318FA
:100A1000680FFA077808E7007A08E8008312D923FC
:100A200077088316E7007808E8007908E9007A0873
:100A3000EA00EE006908ED006808EC006708EB00CA
:100A40008312031793019201483091008530900082
:100A50000313F8237A08BD007908BC007808BB00AE
:100A60007708BA008316E801EA012608E900FA00CF
:100A700000302507F80068080318680FFA0778089F
:100A8000E7007A08E8008312D92377088316E70085
:100A90007808E8007908E9007A08EA00EE006908B9
:100AA000ED006808EC006708EB0083120317930160
:100AB000920148309100853090000313F8237A08A2
:100AC000C1007908C0007808BF007708BE0083160F
:100AD000E801EA012808E900FA0000302707F800D9
:100AE00068080318680FFA077808E7007A08E80032
:100AF0008312D92377088316E7007808E80079087D
:100B0000E9007A08EA00EE006908ED006808EC00E8
:100B10006708EB008312031793019201483091009C
:100B2000853090000313F8237A08B9007908B800DB
:100B30007808B7007708B6008316E801EA012A08AA
:100B4000E900FA0000302907F80068080318680F68
:100B5000FA077808E7007A08E8008312D9237708B3
:100B60008316E7007808E8007908E9007A08EA00C7
:100B7000EE006908ED006808EC006708EB008312DE
:100B800003179301920148309100853090000313C0
:100B9000F8237A08AD007908AC007808AB00770834
:100BA000AA008316E801EA012C08E900FA000030E7
:100BB0002B07F80068080318680FFA077808E700A1
:100BC0007A08E8008312D92377088316E7007808AB
:100BD000E8007908E9007A08EA00EE006908ED000B
:100BE0006808EC006708EB00831203179301920179
:100BF00048309100853090000313F8237A08B10043
:100C00007908B0007808AF007708AE008316E801D5
:100C1000EA012E08E900FA0000302D07F800680804
:100C20000318680FFA077808E7007A08E8008312CB
:100C3000D92377088316E7007808E8007908E900E7
:100C40007A08EA00EE006908ED006808EC00670821
:100C5000EB00831203179301920148309100853015
:100C600090000313F8237A08B5007908B4007808D7
:100C7000B3007708B2008316E801EA013008FA00F1
:100C800000302F078312A000831668088312A1008A
:100C90007A0803187A0FA1078316E801EA013208DF
:100CA000FA00003031078312A2008316680883120D
:100CB000A3007A0803187A0FA3078316E801EA0154
:100CC0003408FA00003033078312A4008316680842
:100CD0008312A5007A0803187A0FA5078316E80186
:100CE000EA013608FA00003035078312A6008316A1
:100CF00068088312A7007A0803187A0FA7078A15D5
:100D00000A169E288318872E203084008317F70147
:100D1000F801F901FA010317A001A101A201A30141
:100D20001F081E041D041C040319C62E2030A40035
:100D30000310980D990D9A0D9B0DA00DA10DA20DFC
:100D4000A30D1F082302031DAF2E1E082202031D40
:100D5000AF2E1D082102031DAF2E1C082002031C0C
:100D6000C02E1C08A0021D08031C1D0FA1021E0896
:100D7000031C1E0FA2021F08031C1F0FA302031453
:100D8000F70DF80DF90DFA0DA40B982E2008800030
:100D9000840A21088000840A22088000840A23082B
:100DA0008000031308000317A9010408A8002910F4
:100DB000831B2914220EF038A400A407E23EA500EC
:100DC000323EA70022080F39A507A507A707E93E6D
:100DD000A600A607A607210E0F39A607A707A60D8E
:100DE000A70DA709A70D21080F39A707A40D0730E4
:100DF000A3000A30A707A603031CFA2EA607A50323
:100E0000031CFE2EA507A403031C022FA407A303A3
:100E1000031C062F2330840083170730280528136E
:100E2000840727300402031928170008F700031D60
:100E3000212F281B212F281A352FA819212F2030C8
:100E4000242FA81528123030F707A2010408A100AA
:100E50002210831B22147708AA00031364220317AD
:100E600021088400831322188317840A281F112F56
:100E7000031308000B088316E70083128B138316F5
:100E800003178C170C14000000000318772F83122F
:100E90000C087F3983160313E800831203170D082B
:100EA00083160313E900831203170F088316031335
:100EB000EA00680883120317AA000313642283164A
:100EC0006908831203178D00831603136A088312BF
:100ED00003178F0083168C170C14000000000313F7
:100EE000E60B732F752F0317772FA32F031783128A
:100EF0000C0D0E0D7F3983160313E80083120317C0
:100F00000D0883160313E900831203170F088316D5
:100F10000313EA00680883120317AA00031364226C
:100F200083166908831203178D00831603136A085A
:100F3000831203178F008D0A03198F0A031083167B
:100F40000313E60B402FE71FA82F83128B1783167E
:100F500083120800DF308316860000308312061DDE
:100F600001308316E600DF30860000308312061C55
:100F70000130F7000310F70D77088316E607DF301E
:100F8000860000308312061E0130F700F70DF70DC2
:100F9000FC30F70577088316E607DF30860000305F
:100FA0008312861C0130F700F70DF70DF70DF830AE
:100FB000F7057708831666078312C2004208F80017
:100FC000080006300317AB000230AC0003133522D3
:100FD0003A3003178D0000308F0003139A22080067
:10100000040803179000831603136A08831203175A
:1010100092000319AB288316031369088312031780
:101020009B00831603136808831203179A00831624
:1010300003136708831203179900831603136608C6
:101040008312031798009F019E0120309D0082307B
:101050009C00180803199928A0001C080319992856
:10106000A00703183A287F30A002031C992803190F
:1010700099283E288130A007031899282008F700F6
:10108000F801F901FA011908A400A4171A08A3002D
:101090001B08A2001830A000A101221C67281F080D
:1010A000FA07031C5928F90A031D5928F80A0319DD
:1010B000A1171E08F907031C6028F80A0319A117D5
:1010C0001D089A009A171A08F8070318A117A10D0E
:1010D000F80CF90CFA0CA40CA30CA20C0310A00B36
:1010E0004C280130F70703189928F81B7E28A40D17
:1010F000FA0DF90DF80DF70303199928A41F8F288D
:10110000FA0A031D8F28F90A031D8F28F80A031D08
:101110008F28F80CF90CFA0CF70A0319992819080A
:10112000A1001D08A106A11F9728F8179D28F813F4
:101130009D28F701F801F901FA017A0883160313D3
:10114000E9007908E8007808E7007708E6008312EC
:101150000317920B0B2883160313690883120317D6
:101160009B00831603136808831203179A008316E3
:101170000313670883120317990083160313660885
:101180008312031798001808B63C9800FA01190852
:101190009C0099170310990C9A0C9B0CFA0CF90CF3
:1011A000F80CF70C980BCA289C1FE128F709F809DE
:1011B000F909FA09F70A0319F80A0319F90A0319D0
:1011C000FA0A7A0883160313E9007908E800780818
:1011D000E7007708E600E91FFE2883120317900353
:1011E000901683160313E609E709E809E909E60AF8
:1011F0000319E70A0319E80A0319E90A3B308312C5
:10120000031797009A309600CA30950094010A306F
:101210009200831603136A08031D13298312031710
:10122000900A831603138314E6308400831369083D
:10123000831203179B008316031368088312031796
:101240009A00831603136708831203179900831605
:101250000313660883120317980017089F001608E7
:101260009E0015089D0014089C008A110313822615
:101270008A157808F708031D562983166A0A83120F
:1012800003171202031D46290313562910080319D8
:1012900059290F39120203194F290318AF29901B3E
:1012A000AF29101B59292030A72903132030031719
:1012B0009005901E74299012831603136A0803196F
:1012C000662983120317900383160313770883128A
:1012D000031790002D30AA008A11031364228A1587
:1012E00003171008F7009001831603136A0883128E
:1012F00003171202031D8A29770890002E30AA00D6
:101300008A11031364228A1503171008F70020308E
:10131000900500303030901EA729901283160313D9
:101320006A0803199829831203179003831603137D
:1013300077088312031790002D30AA008A11031337
:1013400064228A1503171008F70090013030F70760
:101350007708AA008A11031364228A1503178310E1
:1013600017089B0016089A001508990014089800A1
:101370009F019E019D010A309C008A110313822661
:101380008A157A080317970079089600780895005F
:1013900077089400920BCD29D029831603131329C3
:1013A00003130800F701F8010317120803101318BC
:1013B000F707F70CF80C9318F707F70CF80C13194C
:1013C000F707F70CF80C9319F707F70CF80C131A3A
:1013D000F707F70CF80C931AF707F70CF80C131B28
:1013E000F707F70CF80C931BF707F70CF80C03132F
:1013F0000800831603178C170C14000000008312DA
:101400008C080319182A0D0893000F0894000C0883
:10141000AA008A11031364228A15031713088D008A
:1014200014088F008D0A03198F0A0313F929031773
:101430000313080001300317AB00AC008A1103133B
:1014400035228A158316680883120317920011301B
:1014500093000313D22178088316EA000C3083121C
:101460000317AA008A11031364228A154130031757
:101470008D0000308F00831603136A088312031750
:101480008D0703188F0A0313F9210317AF010D30DD
:10149000B0008A110313BA218A15831669086802FD
:1014A000031D852A013083120317AB000230AC0004
:1014B0008A11031335228A15413003178D0000303D
:1014C0008F000313F92101300317AB000330AC0088
:1014D0008A11031335228A15523003178D0000300C
:1014E0008F000313F92101300317AB000430AC0067
:1014F0008A11031335228A15633003178D000030DB
:101500008F000313F921B02B8316013069026802A2
:10151000031DD42A013083120317AB000230AC0044
:101520008A11031335228A15013083166807EB00F0
:10153000831203179200113093000313D22178080D
:101540008316EA004130831203178D0000308F00AC
:10155000831603136A08831203178D0703188F0A73
:101560000313F92101300317AB000330AC008A11DB
:10157000031335228A15413003178D0000308F0088
:101580000313F92101300317AB000430AC008A11BA
:10159000031335228A15523003178D0000308F0057
:1015A0000313F921B02B8316023069026802031D70
:1015B0003A2B013083120317AB000230AC008A11C2
:1015C000031335228A15013083166807EB00831256
:1015D00003179200113093000313D2217808831669
:1015E000EA004130831203178D0000308F0083160C
:1015F00003136A08831203178D0703188F0A031356
:10160000F92101300317AB000330AC008A1103133A
:1016100035228A15023083166807EB008312031700
:101620009200113093000313D22178088316EA0048
:101630004130831203178D0000308F00831603138F
:101640006A08831203178D0703188F0A0313F92101
:1016500001300317AB000430AC008A1103133522AC
:101660008A15413003178D0000308F000313F921D4
:10167000B02B8316013083120317AB000230AC008D
:101680008A11031335228A15013083166807EB008F
:10169000831203179200113093000313D2217808AC
:1016A0008316EA004130831203178D0000308F004B
:1016B000831603136A08831203178D0703188F0A12
:1016C0000313F92101300317AB000330AC008A117A
:1016D000031335228A15023083166807EB00831244
:1016E00003179200113093000313D2217808831658
:1016F000EA004130831203178D0000308F008316FB
:1017000003136A08831203178D0703188F0A031344
:10171000F92101300317AB000430AC008A11031328
:1017200035228A15033083166807EB0083120317EE
:101730009200113093000313D22178088316EA0037
:101740004130831203178D0000308F00831603137E
:101750006A08831203178D0703188F0A0313F921F0
:1017600001300317AB00AC008A11031335228A1530
:1017700008000317A0019F01DF30831603138600C2
:101780008312061DF82BDF30831686008312061C99
:10179000F82BDF30831686008312061EF82BDF300D
:1017A000831686008312861CF82B03179F0A0319E1
:1017B000A00A20080B3C0318DF2B0313F82B031D92
:1017C000E72B1F08B73C0318E72B0313F82BDF3078
:1017D0008316031386008312061CF82B0A300317A6
:1017E000AB008A11031368218A150317BC2B03135E
:1017F000DF30831686008312061D102CDF3083161F
:1018000086008312061C102CDF308316860083129C
:10181000061E102CDF3083168600831286184E2C8D
:10182000DF308316860000308312061D0130031757
:10183000A100DF3083160313860000308312061CDC
:101840000130F7000310F70D77080317A107DF3009
:1018500083160313860000308312061E0130F70042
:10186000F70DF70DFC30F70577080317A107DF30F8
:1018700083160313860000308312861C0130F700A4
:10188000F70DF70DF70DF830F70577080317210767
:101890000313C2004208F800532C532C1030C2002E
:1018A0004208F800532C080001300317AB00023047
:1018B000AC008A11031335228A1501308400031706
:1018C0002008A2001F08A1008A110313D3268A153D
:1018D00004300317AB000230AC008A110313352229
:1018E0008A1508008A1132238A15F8080319722C08
:1018F000831607160000871500008312071283164F
:10190000071200008312871183168711A0308312FB
:101910000317A3008A110313FC228A15031720085A
:10192000A3008A110313FC228A1503172108A300C0
:101930008A110313FC228A158316071200008715EB
:101940008312871DA12C0000A52C0000831607160A
:10195000000083120800031716081A02031CBA2C91
:10196000031DB62C190815020318BA2C16089A0084
:10197000150899001A081802031CC82C031DC42C52
:10198000170819020318C82C18089A00170899009C
:101990001A08A00019089F00031354240317AF016D
:1019A0000F30B0008A110313BA218A15B9237808C1
:1019B00003179C001C08023C031DFC2C1A0816028D
:1019C000031CEC2C031DE82C150819020318EC2C41
:1019D0001B08990703189A0A1A08A00019089F0003
:1019E000031354246400FA300317AB008A11031365
:1019F00068218A15282D03171C08043C031D202D7F
:101A000018081A02031C102D031D0A2D19081702AD
:101A10000318102D1B0899020030031C01309A0294
:101A20001A08A00019089F00031354246400FA3018
:101A30000317AB008A11031368218A15282D031799
:101A40001C08083C0319262D1C0B272D2A2D0313D7
:101A5000D62C0317AF010C30B0008A110313BA2142
:101A60008A1503171C0B752DFA0119089E00A00199
:101A7000FA011A089D001408A0001E08A100031313
:101A800072240130031714079F00A0001D08A10055
:101A9000031372240C300317AB000230AC008A1120
:101AA000031335228A154C308400831380080319F0
:101AB000742D0317A00104089F002010831B20141D
:101AC0000008AA008A11031364228A1503171F084D
:101AD0008400831320188317840A031D722D0313B7
:101AE000850A03170313562D03178A110313DE22E9
:101AF0008A1503171908F8001A08F90003130800DB
:101B000007300317AB000230AC008A1103133522F3
:101B10008A153D3003178D0000308F008A110313A2
:101B20009A228A1508000317141012181414013091
:101B3000AB000230AC008A11031335228A1503175B
:101B400092080319B92D5930AA008A11031364228F
:101B50008A1565300317AA008A11031364228A15B7
:101B600073300317AA008A11031364228A15CD2D3E
:101B700003174E30AA008A11031364228A156F30AE
:101B80000317AA008A11031364228A152030031751
:101B9000AA008A11031364228A150317AF010D30BE
:101BA000B0008A110313BA218A1501300317AB0064
:101BB0000230AC008A11031335228A15B923780844
:101BC00003179300130BE62D482E2E2E1308023C0C
:101BD0000319EE2D1308043C031D242E920803194B
:101BE000F32D0030F42D01309200920803190E2ECF
:101BF0005930AA008A11031364228A15653003172D
:101C0000AA008A11031364228A1573300317AA00ED
:101C10008A11031364228A15222E03174E30AA005C
:101C20008A11031364228A156F300317AA008A11E0
:101C3000031364228A1520300317AA008A110313A4
:101C400064228A152F2E03178A110313DE228A15A8
:101C50000030031714180130F800572E0313013019
:101C60000317AB000230AC008A11031335228A152A
:101C700064000230031795009630AB008A110313FD
:101C800068218A150317950B3C2E0313D52D0317D6
:101C90008A110313DE228A150317AF010C30B0003E
:101CA0008A110313BA218A1503171208F8000313C7
:021CB00008002A
:102000008316E601E7010E308312D2000A12DE22A7
:102010000A1683166608E800831252088316E90040
:102020000A128A1583121A220A168A110A128A15AE
:10203000B9230A168A1178088316E7006708023C5C
:10204000031D2D28E608031928280130E6022C2854
:10205000831252088316E600E52D6708043C031D31
:102060003C28831252088316660203183A2801306E
:10207000E6073B28E601E52D670BE42D0C308312C3
:102080000317AA000A12031364220A1602308316E9
:10209000E800FA3083120317AB000A120313682119
:1020A0000A168316E80B49286608E800EE01ED01E0
:1020B000831203179101900183160313680883129A
:1020C00003179200113093000A128A150313D221CC
:1020D0000A168A117808031792000C30AA000A1217
:1020E000031364220A16413003178D0000308F005D
:1020F00012088D0703188F0A0A128A150313F92193
:102100000A168A1183166808003A83120319CE282A
:10211000013A0319F728033A03192029013A031950
:102120004929073A03197229013A0319A429033AE4
:102130000319D629013A0319F7290F3A0319182A66
:10214000013A0319392A033A03195A2A013A0319A1
:102150001F2B073A03197D2B013A03199E2B033AD3
:102160000319FC2B013A03191D2C1F3A03193E2CAD
:10217000013A03195F2C033A0319802C013A031921
:10218000A12C073A0319C22C013A0319E32C033A94
:102190000319042D013A0319982DDF2D0A12E127A6
:1021A0000A16173003179400013096002C30950062
:1021B00098015A3097000313210803179A0003135C
:1021C00020080317990001309B000A128A15031397
:1021D000AB240A168A113E300317A0000130A1007B
:1021E0000A128A15031372240A168A11E02D0A12A4
:1021F000E1270A16193003179400013096002C309D
:10220000950098015A3097000313250803179A0088
:10221000031324080317990001309B000A128A1542
:102220000313AB240A168A113E300317A0000130B5
:10223000A1000A128A15031372240A168A11E02DCE
:102240000A12E1270A161B3003179400013096008A
:102250002C30950098015A30970003132308031778
:102260009A00031322080317990001309B000A12F9
:102270008A150313AB240A168A113E300317A000F7
:102280000130A1000A128A15031372240A168A115A
:10229000E02D0A12E1270A161D30031794000130C1
:1022A00096002C30950098015A30970003132708A8
:1022B00003179A00031326080317990001309B00A7
:1022C0000A128A150313AB240A168A113E3003172B
:1022D000A0000130A1000A128A15031372240A1605
:1022E0008A11E02D0A128A1580250A168A11831692
:1022F0002A088312031793008316031329088312F5
:1023000003179200273094001F309600403095004C
:102310000E3098001030970013089A0012089900A8
:102320000A309B000A128A150313AB240A168A117D
:102330003E300317A0000130A1000A128A150313D2
:1023400072240A168A11E02D0A128A1580250A16AF
:102350008A1183162C088312031793008316031324
:102360002B08831203179200293094000D30960039
:10237000AC309500033098008430970013089A0021
:10238000120899000A309B000A128A150313AB2425
:102390000A168A113E300317A0000130A1000A126C
:1023A0008A15031372240A168A11E02D031792016D
:1023B0000A128A15031393250A168A11780BF62937
:1023C00020300317A0000130A1000A128A15031360
:1023D00072240A168A113E300317A0000130A100B2
:1023E0000A128A15031372240A168A11E02D0317A4
:1023F00092010A128A15031393250A168A11780B83
:10240000172A24300317A0000130A1000A128A15F0
:10241000031372240A168A113E300317A0000130FC
:10242000A1000A128A15031372240A168A11E02DDC
:10243000031792010A128A15031393250A168A11AB
:10244000780B382A22300317A0000130A1000A12AD
:102450008A15031372240A168A113E300317A0004E
:102460000130A1000A128A15031372240A168A1178
:10247000E02D031792010A128A15031393250A16F9
:102480008A11780B592A26300317A0000130A100C9
:102490000A128A15031372240A168A113E30031792
:1024A000A0000130A1000A128A15031372240A1633
:1024B0008A11E02D031792010A128A15031393253E
:1024C0000A168A11780B1E2B0A12E1270A161730FA
:1024D00003179400013096002C30950098015A3073
:1024E00097000313210803179A000313200803170A
:1024F000990001309B000A128A150313AB240A16B7
:102500008A1179088316EA007808E9003E308312C0
:102510000317A0000130A1000A128A1503137224C8
:102520000A168A118316FA016908EB006A088312F9
:10253000031792009301FA01120883160313EC00AB
:10254000193083120317A000831603136B0883123C
:102550000317A1000A128A15031372240A168A119E
:102560000A300317AB000A12031368210A161A3047
:102570000317A000831603136C0883120317A1002E
:102580000A128A15031372240A168A110A300317D5
:10259000AB000A12031368210A161B300317A000B0
:1025A000831603136B0883120317A1000A128A15FE
:1025B000031372240A168A110A300317AB000A1299
:1025C000031368210A161C300317A0008316031397
:1025D0006C0883120317A1000A128A1503137224D0
:1025E0000A168A110A300317AB000A120313682176
:1025F0000A161D300317A000831603136B088312FD
:102600000317A1000A128A15031372240A168A11ED
:102610000A300317AB000A12031368210A161E3092
:102620000317A000831603136C0883120317A1007D
:102630000A128A15031372240A168A11E02D031751
:1026400092010A128A15031393250A168A11780B30
:102650007C2B26300317A0000130A1000A128A1536
:10266000031372240A168A110A300317AB000A12E8
:10267000031368210A1624300317A0000130A100BB
:102680000A128A15031372240A168A110A300317D4
:10269000AB000A12031368210A1622300317A000A8
:1026A0000130A1000A128A15031372240A168A1136
:1026B0000A300317AB000A12031368210A162030F0
:1026C0000317A0000130A1000A128A150313722417
:1026D0000A168A110A300317AB000A120313682185
:1026E0000A163E300317A0000130A1000A128A1515
:1026F000031372240A168A11E02D031792010A129D
:102700008A15031393250A168A11780B9D2B3930ED
:102710000317A0000130A1000A128A1503137224C6
:102720000A168A113E300317A0000130A1000A12D8
:102730008A15031372240A168A11E02D03179201D9
:102740000A128A15031393250A168A11780BFB2B9C
:102750001F300317A0000130A1000A128A150313CD
:1027600072240A168A110A300317AB000A120313E7
:1027700068210A1621300317A0000130A1000A12B7
:102780008A15031372240A168A110A300317AB0044
:102790000A12031368210A1623300317A000013020
:1027A000A1000A128A15031372240A168A110A302C
:1027B0000317AB000A12031368210A16253003170A
:1027C000A0000130A1000A128A15031372240A1610
:1027D0008A110A300317AB000A12031368210A1684
:1027E0003E300317A0000130A1000A128A1503131E
:1027F00072240A168A11E02D031792010A128A1513
:10280000031393250A168A11780B1C2C3A300317F0
:10281000A0000130A1000A128A15031372240A16BF
:102820008A113E300317A0000130A1000A128A1558
:10283000031372240A168A11E02D031792010A125B
:102840008A15031393250A168A11780B3D2C2C3018
:102850000317A0000130A1000A128A150313722485
:102860000A168A113E300317A0000130A1000A1297
:102870008A15031372240A168A11E02D0317920198
:102880000A128A15031393250A168A11780B5E2CF7
:102890002E300317A0000130A1000A128A1503137D
:1028A00072240A168A113E300317A0000130A100DD
:1028B0000A128A15031372240A168A11E02D0317CF
:1028C00092010A128A15031393250A168A11780BAE
:1028D0007F2C30300317A0000130A1000A128A15A6
:1028E000031372240A168A113E300317A000013028
:1028F000A1000A128A15031372240A168A11E02D08
:10290000031792010A128A15031393250A168A11D6
:10291000780BA02C32300317A0000130A1000A125E
:102920008A15031372240A168A113E300317A00079
:102930000130A1000A128A15031372240A168A11A3
:10294000E02D031792010A128A15031393250A1624
:102950008A11780BC12C34300317A0000130A1007C
:102960000A128A15031372240A168A113E300317BD
:10297000A0000130A1000A128A15031372240A165E
:102980008A11E02D031792010A128A150313932569
:102990000A168A11780BE22C36300317A00001309A
:1029A000A1000A128A15031372240A168A113E30F6
:1029B0000317A0000130A1000A128A150313722424
:1029C0000A168A11E02D031792010A128A150313C1
:1029D00093250A168A11780B032D38300317A000AF
:1029E0000130A1000A128A15031372240A168A11F3
:1029F0003E300317A0000130A1000A128A1503130C
:102A000072240A168A11E02D031792010A128A1500
:102A1000031393250A168A11780B972D2C30031770
:102A2000A0000130A1000A128A15031372240A16AD
:102A30008A110A300317AB000A12031368210A1621
:102A40002E300317A0000130A1000A128A150313CB
:102A500072240A168A110A300317AB000A120313F4
:102A600068210A1630300317A0000130A1000A12B5
:102A70008A15031372240A168A110A300317AB0051
:102A80000A12031368210A1632300317A00001301E
:102A9000A1000A128A15031372240A168A110A3039
:102AA0000317AB000A12031368210A163430031708
:102AB000A0000130A1000A128A15031372240A161D
:102AC0008A110A300317AB000A12031368210A1691
:102AD00036300317A0000130A1000A128A15031333
:102AE00072240A168A110A300317AB000A12031364
:102AF00068210A1638300317A0000130A1000A121D
:102B00008A15031372240A168A110A300317AB00C0
:102B10000A12031368210A163E300317A000013081
:102B2000A1000A128A15031372240A168A11E02DD5
:102B3000031792010A128A15031393250A168A11A4
:102B4000780BD12D06300317AB000230AC000A120F
:102B5000031335220A16363003178D0000308F001C
:102B60000A1203139A220A163B30031794009601A7
:102B70000A3095009801013097009A0199009B0056
:102B80000A128A150313AB240A168A113E30031762
:102B9000A0000130A1000A128A15031372240A163C
:102BA0008A11E02D023003179200FA30AB000A12AE
:102BB000031368210A160317920BD52D0313E02D7A
:102BC0008316E7010A28E52D032E6608E800831224
:102BD00052088316E9000A128A1583121A220A166D
:102BE0008A118316E7010230E800FA3083120317D6
:102BF000AB000A12031368210A168316E80BF52DA1
:102C000083121628831683120317AF010C30B0000D
:0E2C10000A120313BA210A168A150A160F2B90
:10300000840183131F308305613083168F000F08FE
:1030100003178711193003139900A63098009030D8
:1030200083129800C501C401C701C6012630D20031
:10303000831603170908C039890003131F129F1252
:1030400000300317880083128701880189015330FB
:103050000313CC006130CD007630CE006530CF0058
:103060006430D000D1018316E401E30165106130C2
:103070008F000F08353083129000031787018801F5
:1030800089016130831603138F000F080A128A1119
:103090008312EA290A168A158316E20162083F3C68
:1030A000031C5928A0306207840083138001E20AC0
:1030B0004E280A128A118312F02A0A168A15DF3066
:1030C00083168700203083128706DF308316860040
:1030D0002030831286068316E2016208093C031C35
:1030E000C12A0130E1006108173C031C9A28A03076
:1030F0006107E600E7010318E70A6108E8000A1221
:103100008A118312612B0A168A15831666088400B9
:10311000831367188317780880000A308312031717
:10312000AB000A128A11031368210A168A15831646
:10313000E10A73280A128A118312EB2C0A168A15E7
:1031400001300317AB00AC000A128A1103133522B9
:103150000A168A150130840035088316E9008312A7
:1031600034088316E800831233088316E7008312BD
:1031700032088316E6000130EA000A1283120020AA
:103180000A16DF300317AA000A128A1103136422F9
:103190000A168A1543300317AA000A128A1103136C
:1031A00064220A168A1520300317AA000A128A110F
:1031B000031364220A168A1542300317AA000A1262
:1031C0008A11031364220A168A15413084002D08DF
:1031D0008316E90083122C088316E80083122B085B
:1031E0008316E70083122A088316E6000130EA00FE
:1031F0000A12831200200A1656300317AA000A1278
:103200008A11031364220A168A1520300317AA00B4
:103210000A128A11031364220A168A15443003170E
:10322000AA000A128A11031364220A168A15413071
:10323000840031088316E900831230088316E80001
:1032400083122F088316E70083122E088316E600E8
:103250000130EA000A12831200200A1656300317C2
:10326000AA000A128A11031364220A168A15013071
:103270000317AB000230AC000A128A110313352287
:103280000A168A1552300317AA000A128A1103136C
:1032900064220A168A150A30840021080317A20046
:1032A000031320080317A1000A128A110313D3265F
:1032B0000A168A1520300317AA000A128A1103136E
:1032C00064220A168A1559300317AA000A128A11B5
:1032D000031364220A168A150A3084002308031790
:1032E000A200031322080317A1000A128A11031374
:1032F000D3260A168A1520300317AA000A128A114B
:10330000031364220A168A1542300317AA000A1210
:103310008A11031364220A168A150A3084002508CC
:103320000317A200031324080317A1000A128A112D
:103330000313D3260A168A1520300317AA000A128F
:103340008A11031364220A168A1544300317AA004F
:103350000A128A11031364220A168A1547300317CA
:10336000AA000A128A11031364220A168A150A3067
:10337000840027080317A200031326080317A100DF
:103380000A128A110313D3260A168A15013003176D
:10339000AB000330AC000A128A11031335220A165F
:1033A0008A15403003178D0001308F00031005305F
:1033B00083160313E6000A128A1183123A270A16AB
:1033C0008A150A30840029080317A200031328086D
:1033D0000317A1000A128A110313D3260A168A15AD
:1033E000453003178D0001308F000310073083161E
:1033F0000313E6000A128A1183123A270A168A1565
:103400000130840041088316E900831240088316C6
:10341000E80083123F088316E70083123E088316F4
:10342000E6000130EA000A12831200200A1620305A
:103430000317AA000A128A11031364220A168A15B6
:1034400001300317AB000430AC000A128A110313D9
:1034500035220A168A154C3003178D0001308F0073
:103460000310053083160313E6000A128A11831233
:103470003A270A168A15013084003D088316E900B0
:1034800083123C088316E80083123B088316E7008A
:1034900083123A088316E6000130EA000A1283120A
:1034A00000200A16513003178D0001308F000310E1
:1034B000063083160313E6000A128A1183123A2794
:1034C0000A168A150130840039088316E900831230
:1034D00038088316E800831237088316E700831242
:1034E00036088316E6000130EA000A128312002033
:1034F0000A1620300317AA000A128A110313642245
:103500000A168A1596300317AB000A128A110313A4
:1035100068210A168A150A128A11AA270A168A151C
:10352000F8080319962A8316C12A831296300317C6
:10353000AB000A128A11031368210A168A150A12AF
:103540008A11AA270A168A15F8080319AA2A8316C7
:10355000C12A831296300317AB000A128A11031393
:1035600068210A168A150A128A11AA270A168A15CC
:10357000F8080319BE2A8316C12A83128316E20AA9
:103580006D280A128A118312AA270A168A1578084A
:10359000013A031D0E2B0A128A11AA270A168A1550
:1035A000780B0A2B01300317AB000A128A110313A0
:1035B00068210A168A158316E30A0319E40A6408C7
:1035C000023C0318FA2AFF3A031DEA2A6308E83C82
:1035D0000318FA2A6518FA2A5830831203178D0047
:1035E00001308F000A128A1103139A220A168A15D3
:1035F0008316651464080E3C0318082BFF3A031D5C
:10360000052B6308A03C0318082B83120A2B831692
:103610008312CB2A8A1100288A150F2B0F2B5F28C3
:02362000630045
:04400E008C28FF3FBC
:00000001FF
;PIC16F886
;CRC=FE55  CREATED="09-Jan-16 17:23"
